{
  "_format": "hh-sol-artifact-1",
  "contractName": "Raffle",
  "sourceName": "contracts/Raffle.sol",
  "abi": [
    {
      "inputs": [
        {
          "internalType": "address",
          "name": "vrfCoordinatorV2",
          "type": "address"
        },
        {
          "internalType": "uint64",
          "name": "subscriptionId",
          "type": "uint64"
        },
        {
          "internalType": "bytes32",
          "name": "gasLane",
          "type": "bytes32"
        },
        {
          "internalType": "uint256",
          "name": "interval",
          "type": "uint256"
        },
        {
          "internalType": "uint256",
          "name": "entranceFee",
          "type": "uint256"
        },
        {
          "internalType": "uint32",
          "name": "callbackGasLimit",
          "type": "uint32"
        }
      ],
      "stateMutability": "nonpayable",
      "type": "constructor"
    },
    {
      "inputs": [
        {
          "internalType": "address",
          "name": "have",
          "type": "address"
        },
        {
          "internalType": "address",
          "name": "want",
          "type": "address"
        }
      ],
      "name": "OnlyCoordinatorCanFulfill",
      "type": "error"
    },
    {
      "inputs": [],
      "name": "Raffle_TransferredFailed",
      "type": "error"
    },
    {
      "inputs": [],
      "name": "Raffle__NotEnoughETHEntered",
      "type": "error"
    },
    {
      "inputs": [],
      "name": "Raffle__NotOpen",
      "type": "error"
    },
    {
      "inputs": [
        {
          "internalType": "uint256",
          "name": "currentBalance",
          "type": "uint256"
        },
        {
          "internalType": "uint256",
          "name": "numPlayers",
          "type": "uint256"
        },
        {
          "internalType": "uint256",
          "name": "raffleState",
          "type": "uint256"
        }
      ],
      "name": "Raffle__UpkeepNotNeeded",
      "type": "error"
    },
    {
      "anonymous": false,
      "inputs": [
        {
          "indexed": true,
          "internalType": "address",
          "name": "player",
          "type": "address"
        }
      ],
      "name": "RaffleEnter",
      "type": "event"
    },
    {
      "anonymous": false,
      "inputs": [
        {
          "indexed": true,
          "internalType": "uint256",
          "name": "requestId",
          "type": "uint256"
        }
      ],
      "name": "RequestedRaffleWinner",
      "type": "event"
    },
    {
      "anonymous": false,
      "inputs": [
        {
          "indexed": true,
          "internalType": "address",
          "name": "winner",
          "type": "address"
        }
      ],
      "name": "WinnerPicked",
      "type": "event"
    },
    {
      "inputs": [
        {
          "internalType": "bytes",
          "name": "",
          "type": "bytes"
        }
      ],
      "name": "checkUpkeep",
      "outputs": [
        {
          "internalType": "bool",
          "name": "upkeepNeeded",
          "type": "bool"
        },
        {
          "internalType": "bytes",
          "name": "",
          "type": "bytes"
        }
      ],
      "stateMutability": "view",
      "type": "function"
    },
    {
      "inputs": [],
      "name": "enterRaffle",
      "outputs": [],
      "stateMutability": "payable",
      "type": "function"
    },
    {
      "inputs": [],
      "name": "getEntraceFee",
      "outputs": [
        {
          "internalType": "uint256",
          "name": "",
          "type": "uint256"
        }
      ],
      "stateMutability": "view",
      "type": "function"
    },
    {
      "inputs": [],
      "name": "getLatestTimeStamp",
      "outputs": [
        {
          "internalType": "uint256",
          "name": "",
          "type": "uint256"
        }
      ],
      "stateMutability": "view",
      "type": "function"
    },
    {
      "inputs": [],
      "name": "getNumWords",
      "outputs": [
        {
          "internalType": "uint256",
          "name": "",
          "type": "uint256"
        }
      ],
      "stateMutability": "pure",
      "type": "function"
    },
    {
      "inputs": [],
      "name": "getNumberOfPlayers",
      "outputs": [
        {
          "internalType": "uint256",
          "name": "",
          "type": "uint256"
        }
      ],
      "stateMutability": "view",
      "type": "function"
    },
    {
      "inputs": [
        {
          "internalType": "uint256",
          "name": "index",
          "type": "uint256"
        }
      ],
      "name": "getPlayer",
      "outputs": [
        {
          "internalType": "address",
          "name": "",
          "type": "address"
        }
      ],
      "stateMutability": "view",
      "type": "function"
    },
    {
      "inputs": [],
      "name": "getRaffleState",
      "outputs": [
        {
          "internalType": "enum Raffle.RaffleState",
          "name": "",
          "type": "uint8"
        }
      ],
      "stateMutability": "view",
      "type": "function"
    },
    {
      "inputs": [],
      "name": "getRecentWinner",
      "outputs": [
        {
          "internalType": "address",
          "name": "",
          "type": "address"
        }
      ],
      "stateMutability": "view",
      "type": "function"
    },
    {
      "inputs": [],
      "name": "getRequestConfirmations",
      "outputs": [
        {
          "internalType": "uint256",
          "name": "",
          "type": "uint256"
        }
      ],
      "stateMutability": "pure",
      "type": "function"
    },
    {
      "inputs": [
        {
          "internalType": "bytes",
          "name": "",
          "type": "bytes"
        }
      ],
      "name": "performUpkeep",
      "outputs": [],
      "stateMutability": "nonpayable",
      "type": "function"
    },
    {
      "inputs": [
        {
          "internalType": "uint256",
          "name": "requestId",
          "type": "uint256"
        },
        {
          "internalType": "uint256[]",
          "name": "randomWords",
          "type": "uint256[]"
        }
      ],
      "name": "rawFulfillRandomWords",
      "outputs": [],
      "stateMutability": "nonpayable",
      "type": "function"
    }
  ],
  "bytecode": "0x6101606040523480156200001257600080fd5b506040516200178d3803806200178d833981810160405281019062000038919062000294565b858073ffffffffffffffffffffffffffffffffffffffff1660808173ffffffffffffffffffffffffffffffffffffffff1681525050508573ffffffffffffffffffffffffffffffffffffffff1660c08173ffffffffffffffffffffffffffffffffffffffff16815250508361010081815250508261014081815250508467ffffffffffffffff1660e08167ffffffffffffffff16815250508160a081815250506000600160146101000a81548160ff0219169083600181111562000101576200010062000330565b5b0217905550426002819055508063ffffffff166101208163ffffffff16815250505050505050506200035f565b600080fd5b600073ffffffffffffffffffffffffffffffffffffffff82169050919050565b6000620001608262000133565b9050919050565b620001728162000153565b81146200017e57600080fd5b50565b600081519050620001928162000167565b92915050565b600067ffffffffffffffff82169050919050565b620001b78162000198565b8114620001c357600080fd5b50565b600081519050620001d781620001ac565b92915050565b6000819050919050565b620001f281620001dd565b8114620001fe57600080fd5b50565b6000815190506200021281620001e7565b92915050565b6000819050919050565b6200022d8162000218565b81146200023957600080fd5b50565b6000815190506200024d8162000222565b92915050565b600063ffffffff82169050919050565b6200026e8162000253565b81146200027a57600080fd5b50565b6000815190506200028e8162000263565b92915050565b60008060008060008060c08789031215620002b457620002b36200012e565b5b6000620002c489828a0162000181565b9650506020620002d789828a01620001c6565b9550506040620002ea89828a0162000201565b9450506060620002fd89828a016200023c565b93505060806200031089828a016200023c565b92505060a06200032389828a016200027d565b9150509295509295509295565b7f4e487b7100000000000000000000000000000000000000000000000000000000600052602160045260246000fd5b60805160a05160c05160e0516101005161012051610140516113c5620003c8600039600061077901526000610637015260006105f301526000610614015260006105b701526000818161038901526107e70152600081816102c9015261031d01526113c56000f3fe6080604052600436106100a75760003560e01c806353a2c19a1161006457806353a2c19a146101895780635f1b0fd8146101b45780636e04ff0d146101df578063ce147cf31461021d578063e55ae4e814610248578063fd6673f514610285576100a7565b8063115cbaf5146100ac5780631fe543e3146100d75780632cfcc53914610100578063320229eb1461010a5780634585e33b14610135578063473f1ddc1461015e575b600080fd5b3480156100b857600080fd5b506100c16102b0565b6040516100ce9190610bad565b60405180910390f35b3480156100e357600080fd5b506100fe60048036038101906100f99190610d6b565b6102c7565b005b610108610387565b005b34801561011657600080fd5b5061011f6104f6565b60405161012c9190610dd6565b60405180910390f35b34801561014157600080fd5b5061015c60048036038101906101579190610e4c565b610500565b005b34801561016a57600080fd5b506101736106f0565b6040516101809190610eda565b60405180910390f35b34801561019557600080fd5b5061019e61071a565b6040516101ab9190610dd6565b60405180910390f35b3480156101c057600080fd5b506101c9610729565b6040516101d69190610dd6565b60405180910390f35b3480156101eb57600080fd5b5061020660048036038101906102019190610faa565b610736565b60405161021492919061108d565b60405180910390f35b34801561022957600080fd5b506102326107e3565b60405161023f9190610dd6565b60405180910390f35b34801561025457600080fd5b5061026f600480360381019061026a91906110bd565b61080b565b60405161027c9190610eda565b60405180910390f35b34801561029157600080fd5b5061029a610852565b6040516102a79190610dd6565b60405180910390f35b6000600160149054906101000a900460ff16905090565b7f000000000000000000000000000000000000000000000000000000000000000073ffffffffffffffffffffffffffffffffffffffff163373ffffffffffffffffffffffffffffffffffffffff161461037957337f00000000000000000000000000000000000000000000000000000000000000006040517f1cf993f40000000000000000000000000000000000000000000000000000000081526004016103709291906110ea565b60405180910390fd5b610383828261085e565b5050565b7f00000000000000000000000000000000000000000000000000000000000000003410156103e1576040517fbd4e069500000000000000000000000000000000000000000000000000000000815260040160405180910390fd5b600060018111156103f5576103f4610b36565b5b600160149054906101000a900460ff16600181111561041757610416610b36565b5b1461044e576040517f1425571c00000000000000000000000000000000000000000000000000000000815260040160405180910390fd5b6000339080600181540180825580915050600190039060005260206000200160009091909190916101000a81548173ffffffffffffffffffffffffffffffffffffffff021916908373ffffffffffffffffffffffffffffffffffffffff1602179055503373ffffffffffffffffffffffffffffffffffffffff167f0805e1d667bddb8a95f0f09880cf94f403fb596ce79928d9f29b74203ba284d460405160405180910390a2565b6000600254905090565b600061051a60405180602001604052806000815250610736565b509050806105895747600080549050600160149054906101000a900460ff16600181111561054b5761054a610b36565b5b6040517f584327aa00000000000000000000000000000000000000000000000000000000815260040161058093929190611113565b60405180910390fd5b60018060146101000a81548160ff021916908360018111156105ae576105ad610b36565b5b021790555060007f000000000000000000000000000000000000000000000000000000000000000073ffffffffffffffffffffffffffffffffffffffff16635d3b1d307f00000000000000000000000000000000000000000000000000000000000000007f000000000000000000000000000000000000000000000000000000000000000060037f000000000000000000000000000000000000000000000000000000000000000060016040518663ffffffff1660e01b81526004016106789594939291906111c2565b6020604051808303816000875af1158015610697573d6000803e3d6000fd5b505050506040513d601f19601f820116820180604052508101906106bb919061122a565b9050807fcd6e45c8998311cab7e9d4385596cac867e20a0587194b954fa3a731c93ce78b60405160405180910390a250505050565b6000600160009054906101000a900473ffffffffffffffffffffffffffffffffffffffff16905090565b6000600163ffffffff16905090565b6000600361ffff16905090565b600060606000600160149054906101000a900460ff16600181111561075e5761075d610b36565b5b6000600181111561077257610771610b36565b5b14905060007f0000000000000000000000000000000000000000000000000000000000000000600254426107a69190611286565b119050600080600080549050119050600080471190508380156107c65750825b80156107cf5750815b80156107d85750805b955050505050915091565b60007f0000000000000000000000000000000000000000000000000000000000000000905090565b60008082815481106108205761081f6112ba565b5b9060005260206000200160009054906101000a900473ffffffffffffffffffffffffffffffffffffffff169050919050565b60008080549050905090565b6000808054905082600081518110610879576108786112ba565b5b602002602001015161088b9190611318565b905060008082815481106108a2576108a16112ba565b5b9060005260206000200160009054906101000a900473ffffffffffffffffffffffffffffffffffffffff16905080600160006101000a81548173ffffffffffffffffffffffffffffffffffffffff021916908373ffffffffffffffffffffffffffffffffffffffff1602179055506000600160146101000a81548160ff0219169083600181111561093657610935610b36565b5b0217905550600067ffffffffffffffff81111561095657610955610c28565b5b6040519080825280602002602001820160405280156109845781602001602082028036833780820191505090505b506000908051906020019061099a929190610a8f565b504260028190555060008173ffffffffffffffffffffffffffffffffffffffff16476040516109c89061137a565b60006040518083038185875af1925050503d8060008114610a05576040519150601f19603f3d011682016040523d82523d6000602084013e610a0a565b606091505b5050905080610a45576040517ffa0b96c100000000000000000000000000000000000000000000000000000000815260040160405180910390fd5b8173ffffffffffffffffffffffffffffffffffffffff167f5b690ec4a06fe979403046eaeea5b3ce38524683c3001f662c8b5a829632f7df60405160405180910390a25050505050565b828054828255906000526020600020908101928215610b08579160200282015b82811115610b075782518260006101000a81548173ffffffffffffffffffffffffffffffffffffffff021916908373ffffffffffffffffffffffffffffffffffffffff16021790555091602001919060010190610aaf565b5b509050610b159190610b19565b5090565b5b80821115610b32576000816000905550600101610b1a565b5090565b7f4e487b7100000000000000000000000000000000000000000000000000000000600052602160045260246000fd5b60028110610b7657610b75610b36565b5b50565b6000819050610b8782610b65565b919050565b6000610b9782610b79565b9050919050565b610ba781610b8c565b82525050565b6000602082019050610bc26000830184610b9e565b92915050565b6000604051905090565b600080fd5b600080fd5b6000819050919050565b610bef81610bdc565b8114610bfa57600080fd5b50565b600081359050610c0c81610be6565b92915050565b600080fd5b6000601f19601f8301169050919050565b7f4e487b7100000000000000000000000000000000000000000000000000000000600052604160045260246000fd5b610c6082610c17565b810181811067ffffffffffffffff82111715610c7f57610c7e610c28565b5b80604052505050565b6000610c92610bc8565b9050610c9e8282610c57565b919050565b600067ffffffffffffffff821115610cbe57610cbd610c28565b5b602082029050602081019050919050565b600080fd5b6000610ce7610ce284610ca3565b610c88565b90508083825260208201905060208402830185811115610d0a57610d09610ccf565b5b835b81811015610d335780610d1f8882610bfd565b845260208401935050602081019050610d0c565b5050509392505050565b600082601f830112610d5257610d51610c12565b5b8135610d62848260208601610cd4565b91505092915050565b60008060408385031215610d8257610d81610bd2565b5b6000610d9085828601610bfd565b925050602083013567ffffffffffffffff811115610db157610db0610bd7565b5b610dbd85828601610d3d565b9150509250929050565b610dd081610bdc565b82525050565b6000602082019050610deb6000830184610dc7565b92915050565b600080fd5b60008083601f840112610e0c57610e0b610c12565b5b8235905067ffffffffffffffff811115610e2957610e28610df1565b5b602083019150836001820283011115610e4557610e44610ccf565b5b9250929050565b60008060208385031215610e6357610e62610bd2565b5b600083013567ffffffffffffffff811115610e8157610e80610bd7565b5b610e8d85828601610df6565b92509250509250929050565b600073ffffffffffffffffffffffffffffffffffffffff82169050919050565b6000610ec482610e99565b9050919050565b610ed481610eb9565b82525050565b6000602082019050610eef6000830184610ecb565b92915050565b600080fd5b600067ffffffffffffffff821115610f1557610f14610c28565b5b610f1e82610c17565b9050602081019050919050565b82818337600083830152505050565b6000610f4d610f4884610efa565b610c88565b905082815260208101848484011115610f6957610f68610ef5565b5b610f74848285610f2b565b509392505050565b600082601f830112610f9157610f90610c12565b5b8135610fa1848260208601610f3a565b91505092915050565b600060208284031215610fc057610fbf610bd2565b5b600082013567ffffffffffffffff811115610fde57610fdd610bd7565b5b610fea84828501610f7c565b91505092915050565b60008115159050919050565b61100881610ff3565b82525050565b600081519050919050565b600082825260208201905092915050565b60005b8381101561104857808201518184015260208101905061102d565b60008484015250505050565b600061105f8261100e565b6110698185611019565b935061107981856020860161102a565b61108281610c17565b840191505092915050565b60006040820190506110a26000830185610fff565b81810360208301526110b48184611054565b90509392505050565b6000602082840312156110d3576110d2610bd2565b5b60006110e184828501610bfd565b91505092915050565b60006040820190506110ff6000830185610ecb565b61110c6020830184610ecb565b9392505050565b60006060820190506111286000830186610dc7565b6111356020830185610dc7565b6111426040830184610dc7565b949350505050565b6000819050919050565b61115d8161114a565b82525050565b600067ffffffffffffffff82169050919050565b61118081611163565b82525050565b600061ffff82169050919050565b61119d81611186565b82525050565b600063ffffffff82169050919050565b6111bc816111a3565b82525050565b600060a0820190506111d76000830188611154565b6111e46020830187611177565b6111f16040830186611194565b6111fe60608301856111b3565b61120b60808301846111b3565b9695505050505050565b60008151905061122481610be6565b92915050565b6000602082840312156112405761123f610bd2565b5b600061124e84828501611215565b91505092915050565b7f4e487b7100000000000000000000000000000000000000000000000000000000600052601160045260246000fd5b600061129182610bdc565b915061129c83610bdc565b92508282039050818111156112b4576112b3611257565b5b92915050565b7f4e487b7100000000000000000000000000000000000000000000000000000000600052603260045260246000fd5b7f4e487b7100000000000000000000000000000000000000000000000000000000600052601260045260246000fd5b600061132382610bdc565b915061132e83610bdc565b92508261133e5761133d6112e9565b5b828206905092915050565b600081905092915050565b50565b6000611364600083611349565b915061136f82611354565b600082019050919050565b600061138582611357565b915081905091905056fea2646970667358221220fddfed42a3326454b0274e7d2ca26d96be8c2517e6d3b869023c0acccf84ed0c64736f6c63430008110033",
  "linkReferences": {},
  "deployedLinkReferences": {}
}