{
  "_format": "hh-sol-artifact-1",
  "contractName": "Raffle",
  "sourceName": "contracts/Raffle.sol",
  "abi": [
    {
      "inputs": [
        {
          "internalType": "uint256",
          "name": "entranceFee",
          "type": "uint256"
        }
      ],
      "stateMutability": "nonpayable",
      "type": "constructor"
    },
    {
      "inputs": [],
      "name": "Raffle__NotEnoughETHEntered",
      "type": "error"
    },
    {
      "anonymous": false,
      "inputs": [
        {
          "indexed": true,
          "internalType": "address",
          "name": "player",
          "type": "address"
        }
      ],
      "name": "RaffleEnter",
      "type": "event"
    },
    {
      "inputs": [],
      "name": "enterRaffle",
      "outputs": [],
      "stateMutability": "payable",
      "type": "function"
    },
    {
      "inputs": [],
      "name": "getEntraceFee",
      "outputs": [
        {
          "internalType": "uint256",
          "name": "",
          "type": "uint256"
        }
      ],
      "stateMutability": "view",
      "type": "function"
    },
    {
      "inputs": [
        {
          "internalType": "uint256",
          "name": "index",
          "type": "uint256"
        }
      ],
      "name": "getPlayer",
      "outputs": [
        {
          "internalType": "address",
          "name": "",
          "type": "address"
        }
      ],
      "stateMutability": "view",
      "type": "function"
    }
  ],
  "bytecode": "0x60a060405234801561001057600080fd5b506040516104383803806104388339818101604052810190610032919061007b565b8060808181525050506100a8565b600080fd5b6000819050919050565b61005881610045565b811461006357600080fd5b50565b6000815190506100758161004f565b92915050565b60006020828403121561009157610090610040565b5b600061009f84828501610066565b91505092915050565b60805161036f6100c96000396000818160ad01526101b1015261036f6000f3fe6080604052600436106100345760003560e01c80632cfcc53914610039578063ce147cf314610043578063e55ae4e81461006e575b600080fd5b6100416100ab565b005b34801561004f57600080fd5b506100586101ad565b6040516100659190610235565b60405180910390f35b34801561007a57600080fd5b5061009560048036038101906100909190610281565b6101d5565b6040516100a291906102ef565b60405180910390f35b7f0000000000000000000000000000000000000000000000000000000000000000341015610105576040517fbd4e069500000000000000000000000000000000000000000000000000000000815260040160405180910390fd5b6000339080600181540180825580915050600190039060005260206000200160009091909190916101000a81548173ffffffffffffffffffffffffffffffffffffffff021916908373ffffffffffffffffffffffffffffffffffffffff1602179055503373ffffffffffffffffffffffffffffffffffffffff167f0805e1d667bddb8a95f0f09880cf94f403fb596ce79928d9f29b74203ba284d460405160405180910390a2565b60007f0000000000000000000000000000000000000000000000000000000000000000905090565b60008082815481106101ea576101e961030a565b5b9060005260206000200160009054906101000a900473ffffffffffffffffffffffffffffffffffffffff169050919050565b6000819050919050565b61022f8161021c565b82525050565b600060208201905061024a6000830184610226565b92915050565b600080fd5b61025e8161021c565b811461026957600080fd5b50565b60008135905061027b81610255565b92915050565b60006020828403121561029757610296610250565b5b60006102a58482850161026c565b91505092915050565b600073ffffffffffffffffffffffffffffffffffffffff82169050919050565b60006102d9826102ae565b9050919050565b6102e9816102ce565b82525050565b600060208201905061030460008301846102e0565b92915050565b7f4e487b7100000000000000000000000000000000000000000000000000000000600052603260045260246000fdfea2646970667358221220685a5b984c7b7fdc5e232532d2400070d7abb242b983425d458f924585e7467c64736f6c63430008110033",
  "linkReferences": {},
  "deployedLinkReferences": {}
}