{
  "_format": "hh-sol-artifact-1",
  "contractName": "Raffle",
  "sourceName": "contracts/Raffle.sol",
  "abi": [
    {
      "inputs": [
        {
          "internalType": "uint256",
          "name": "entranceFee",
          "type": "uint256"
        }
      ],
      "stateMutability": "nonpayable",
      "type": "constructor"
    },
    {
      "inputs": [],
      "name": "Raffle__NotEnoughETHEntered",
      "type": "error"
    },
    {
      "inputs": [],
      "name": "enterRaffle",
      "outputs": [],
      "stateMutability": "payable",
      "type": "function"
    },
    {
      "inputs": [],
      "name": "getEntraceFee",
      "outputs": [
        {
          "internalType": "uint256",
          "name": "",
          "type": "uint256"
        }
      ],
      "stateMutability": "view",
      "type": "function"
    },
    {
      "inputs": [
        {
          "internalType": "uint256",
          "name": "index",
          "type": "uint256"
        }
      ],
      "name": "getPlayer",
      "outputs": [
        {
          "internalType": "address",
          "name": "",
          "type": "address"
        }
      ],
      "stateMutability": "view",
      "type": "function"
    }
  ],
  "bytecode": "0x60a060405234801561001057600080fd5b506040516103923803806103928339818101604052810190610032919061007b565b8060808181525050506100a8565b600080fd5b6000819050919050565b61005881610045565b811461006357600080fd5b50565b6000815190506100758161004f565b92915050565b60006020828403121561009157610090610040565b5b600061009f84828501610066565b91505092915050565b6080516102c96100c96000396000818160ad015261010b01526102c96000f3fe6080604052600436106100345760003560e01c80632cfcc53914610039578063ce147cf314610043578063e55ae4e81461006e575b600080fd5b6100416100ab565b005b34801561004f57600080fd5b50610058610107565b604051610065919061018f565b60405180910390f35b34801561007a57600080fd5b50610095600480360381019061009091906101db565b61012f565b6040516100a29190610249565b60405180910390f35b7f0000000000000000000000000000000000000000000000000000000000000000341015610105576040517fbd4e069500000000000000000000000000000000000000000000000000000000815260040160405180910390fd5b565b60007f0000000000000000000000000000000000000000000000000000000000000000905090565b600080828154811061014457610143610264565b5b9060005260206000200160009054906101000a900473ffffffffffffffffffffffffffffffffffffffff169050919050565b6000819050919050565b61018981610176565b82525050565b60006020820190506101a46000830184610180565b92915050565b600080fd5b6101b881610176565b81146101c357600080fd5b50565b6000813590506101d5816101af565b92915050565b6000602082840312156101f1576101f06101aa565b5b60006101ff848285016101c6565b91505092915050565b600073ffffffffffffffffffffffffffffffffffffffff82169050919050565b600061023382610208565b9050919050565b61024381610228565b82525050565b600060208201905061025e600083018461023a565b92915050565b7f4e487b7100000000000000000000000000000000000000000000000000000000600052603260045260246000fdfea2646970667358221220fac3893fda8df691800b09744b24528602a71cd97aa22e084fb318f4d66ac8c164736f6c63430008110033",
  "linkReferences": {},
  "deployedLinkReferences": {}
}